{
  "_format": "hh-sol-artifact-1",
  "contractName": "HotelReservation",
  "sourceName": "contracts/HotelReservation.sol",
  "abi": [
    {
      "inputs": [],
      "stateMutability": "nonpayable",
      "type": "constructor"
    },
    {
      "anonymous": false,
      "inputs": [
        {
          "indexed": true,
          "internalType": "address",
          "name": "admin",
          "type": "address"
        }
      ],
      "name": "AdminAdded",
      "type": "event"
    },
    {
      "anonymous": false,
      "inputs": [
        {
          "indexed": true,
          "internalType": "address",
          "name": "user",
          "type": "address"
        },
        {
          "indexed": true,
          "internalType": "uint256",
          "name": "reservationId",
          "type": "uint256"
        }
      ],
      "name": "Checkout",
      "type": "event"
    },
    {
      "anonymous": false,
      "inputs": [
        {
          "indexed": true,
          "internalType": "address",
          "name": "user",
          "type": "address"
        },
        {
          "indexed": false,
          "internalType": "string",
          "name": "uri",
          "type": "string"
        }
      ],
      "name": "ProfileUpdated",
      "type": "event"
    },
    {
      "anonymous": false,
      "inputs": [
        {
          "indexed": true,
          "internalType": "address",
          "name": "user",
          "type": "address"
        },
        {
          "indexed": true,
          "internalType": "uint256",
          "name": "roomId",
          "type": "uint256"
        },
        {
          "indexed": false,
          "internalType": "uint256",
          "name": "reservationId",
          "type": "uint256"
        }
      ],
      "name": "Reserved",
      "type": "event"
    },
    {
      "anonymous": false,
      "inputs": [
        {
          "indexed": true,
          "internalType": "uint256",
          "name": "roomId",
          "type": "uint256"
        },
        {
          "indexed": false,
          "internalType": "string",
          "name": "name",
          "type": "string"
        },
        {
          "indexed": false,
          "internalType": "uint256",
          "name": "priceWei",
          "type": "uint256"
        },
        {
          "indexed": false,
          "internalType": "uint256",
          "name": "slots",
          "type": "uint256"
        }
      ],
      "name": "RoomAdded",
      "type": "event"
    },
    {
      "anonymous": false,
      "inputs": [
        {
          "indexed": true,
          "internalType": "uint256",
          "name": "roomId",
          "type": "uint256"
        }
      ],
      "name": "RoomRemoved",
      "type": "event"
    },
    {
      "anonymous": false,
      "inputs": [
        {
          "indexed": true,
          "internalType": "uint256",
          "name": "roomId",
          "type": "uint256"
        },
        {
          "indexed": false,
          "internalType": "string",
          "name": "name",
          "type": "string"
        },
        {
          "indexed": false,
          "internalType": "uint256",
          "name": "priceWei",
          "type": "uint256"
        },
        {
          "indexed": false,
          "internalType": "uint256",
          "name": "slots",
          "type": "uint256"
        }
      ],
      "name": "RoomUpdated",
      "type": "event"
    },
    {
      "inputs": [
        {
          "internalType": "address",
          "name": "_admin",
          "type": "address"
        }
      ],
      "name": "addAdmin",
      "outputs": [],
      "stateMutability": "nonpayable",
      "type": "function"
    },
    {
      "inputs": [
        {
          "internalType": "string",
          "name": "name",
          "type": "string"
        },
        {
          "internalType": "uint256",
          "name": "priceWei",
          "type": "uint256"
        },
        {
          "internalType": "uint256",
          "name": "slots",
          "type": "uint256"
        },
        {
          "internalType": "string[]",
          "name": "_facilities",
          "type": "string[]"
        }
      ],
      "name": "addRoom",
      "outputs": [],
      "stateMutability": "nonpayable",
      "type": "function"
    },
    {
      "inputs": [
        {
          "internalType": "address",
          "name": "",
          "type": "address"
        }
      ],
      "name": "admins",
      "outputs": [
        {
          "internalType": "bool",
          "name": "",
          "type": "bool"
        }
      ],
      "stateMutability": "view",
      "type": "function"
    },
    {
      "inputs": [
        {
          "internalType": "uint256",
          "name": "reservationId",
          "type": "uint256"
        }
      ],
      "name": "checkout",
      "outputs": [],
      "stateMutability": "nonpayable",
      "type": "function"
    },
    {
      "inputs": [
        {
          "internalType": "uint256",
          "name": "roomId",
          "type": "uint256"
        },
        {
          "internalType": "string",
          "name": "name",
          "type": "string"
        },
        {
          "internalType": "uint256",
          "name": "priceWei",
          "type": "uint256"
        },
        {
          "internalType": "uint256",
          "name": "slots",
          "type": "uint256"
        },
        {
          "internalType": "string[]",
          "name": "_facilities",
          "type": "string[]"
        }
      ],
      "name": "editRoom",
      "outputs": [],
      "stateMutability": "nonpayable",
      "type": "function"
    },
    {
      "inputs": [],
      "name": "getAllReservations",
      "outputs": [
        {
          "components": [
            {
              "internalType": "uint256",
              "name": "id",
              "type": "uint256"
            },
            {
              "internalType": "uint256",
              "name": "roomId",
              "type": "uint256"
            },
            {
              "internalType": "address",
              "name": "user",
              "type": "address"
            },
            {
              "internalType": "uint256",
              "name": "fromTimestamp",
              "type": "uint256"
            },
            {
              "internalType": "uint256",
              "name": "toTimestamp",
              "type": "uint256"
            },
            {
              "internalType": "bool",
              "name": "active",
              "type": "bool"
            }
          ],
          "internalType": "struct HotelReservation.Reservation[]",
          "name": "",
          "type": "tuple[]"
        }
      ],
      "stateMutability": "view",
      "type": "function"
    },
    {
      "inputs": [],
      "name": "getAllRooms",
      "outputs": [
        {
          "components": [
            {
              "internalType": "uint256",
              "name": "id",
              "type": "uint256"
            },
            {
              "internalType": "string",
              "name": "name",
              "type": "string"
            },
            {
              "internalType": "uint256",
              "name": "priceWei",
              "type": "uint256"
            },
            {
              "internalType": "uint256",
              "name": "slots",
              "type": "uint256"
            },
            {
              "internalType": "bool",
              "name": "exists",
              "type": "bool"
            },
            {
              "internalType": "string[]",
              "name": "facilities",
              "type": "string[]"
            }
          ],
          "internalType": "struct HotelReservation.Room[]",
          "name": "",
          "type": "tuple[]"
        }
      ],
      "stateMutability": "view",
      "type": "function"
    },
    {
      "inputs": [],
      "name": "getMyReservations",
      "outputs": [
        {
          "components": [
            {
              "internalType": "uint256",
              "name": "id",
              "type": "uint256"
            },
            {
              "internalType": "uint256",
              "name": "roomId",
              "type": "uint256"
            },
            {
              "internalType": "address",
              "name": "user",
              "type": "address"
            },
            {
              "internalType": "uint256",
              "name": "fromTimestamp",
              "type": "uint256"
            },
            {
              "internalType": "uint256",
              "name": "toTimestamp",
              "type": "uint256"
            },
            {
              "internalType": "bool",
              "name": "active",
              "type": "bool"
            }
          ],
          "internalType": "struct HotelReservation.Reservation[]",
          "name": "",
          "type": "tuple[]"
        }
      ],
      "stateMutability": "view",
      "type": "function"
    },
    {
      "inputs": [
        {
          "internalType": "address",
          "name": "_addr",
          "type": "address"
        }
      ],
      "name": "getProfilePic",
      "outputs": [
        {
          "internalType": "string",
          "name": "",
          "type": "string"
        }
      ],
      "stateMutability": "view",
      "type": "function"
    },
    {
      "inputs": [
        {
          "internalType": "address",
          "name": "user",
          "type": "address"
        }
      ],
      "name": "getReservationsByUser",
      "outputs": [
        {
          "components": [
            {
              "internalType": "uint256",
              "name": "id",
              "type": "uint256"
            },
            {
              "internalType": "uint256",
              "name": "roomId",
              "type": "uint256"
            },
            {
              "internalType": "address",
              "name": "user",
              "type": "address"
            },
            {
              "internalType": "uint256",
              "name": "fromTimestamp",
              "type": "uint256"
            },
            {
              "internalType": "uint256",
              "name": "toTimestamp",
              "type": "uint256"
            },
            {
              "internalType": "bool",
              "name": "active",
              "type": "bool"
            }
          ],
          "internalType": "struct HotelReservation.Reservation[]",
          "name": "",
          "type": "tuple[]"
        }
      ],
      "stateMutability": "view",
      "type": "function"
    },
    {
      "inputs": [
        {
          "internalType": "address",
          "name": "_addr",
          "type": "address"
        }
      ],
      "name": "isAdmin",
      "outputs": [
        {
          "internalType": "bool",
          "name": "",
          "type": "bool"
        }
      ],
      "stateMutability": "view",
      "type": "function"
    },
    {
      "inputs": [
        {
          "internalType": "uint256",
          "name": "roomId",
          "type": "uint256"
        }
      ],
      "name": "removeRoom",
      "outputs": [],
      "stateMutability": "nonpayable",
      "type": "function"
    },
    {
      "inputs": [],
      "name": "reservationCount",
      "outputs": [
        {
          "internalType": "uint256",
          "name": "",
          "type": "uint256"
        }
      ],
      "stateMutability": "view",
      "type": "function"
    },
    {
      "inputs": [
        {
          "internalType": "uint256",
          "name": "",
          "type": "uint256"
        }
      ],
      "name": "reservations",
      "outputs": [
        {
          "internalType": "uint256",
          "name": "id",
          "type": "uint256"
        },
        {
          "internalType": "uint256",
          "name": "roomId",
          "type": "uint256"
        },
        {
          "internalType": "address",
          "name": "user",
          "type": "address"
        },
        {
          "internalType": "uint256",
          "name": "fromTimestamp",
          "type": "uint256"
        },
        {
          "internalType": "uint256",
          "name": "toTimestamp",
          "type": "uint256"
        },
        {
          "internalType": "bool",
          "name": "active",
          "type": "bool"
        }
      ],
      "stateMutability": "view",
      "type": "function"
    },
    {
      "inputs": [
        {
          "internalType": "address",
          "name": "",
          "type": "address"
        },
        {
          "internalType": "uint256",
          "name": "",
          "type": "uint256"
        }
      ],
      "name": "reservationsByUser",
      "outputs": [
        {
          "internalType": "uint256",
          "name": "",
          "type": "uint256"
        }
      ],
      "stateMutability": "view",
      "type": "function"
    },
    {
      "inputs": [
        {
          "internalType": "uint256",
          "name": "roomId",
          "type": "uint256"
        },
        {
          "internalType": "uint256",
          "name": "fromTimestamp",
          "type": "uint256"
        },
        {
          "internalType": "uint256",
          "name": "toTimestamp",
          "type": "uint256"
        }
      ],
      "name": "reserve",
      "outputs": [],
      "stateMutability": "payable",
      "type": "function"
    },
    {
      "inputs": [],
      "name": "roomCount",
      "outputs": [
        {
          "internalType": "uint256",
          "name": "",
          "type": "uint256"
        }
      ],
      "stateMutability": "view",
      "type": "function"
    },
    {
      "inputs": [
        {
          "internalType": "uint256",
          "name": "",
          "type": "uint256"
        }
      ],
      "name": "rooms",
      "outputs": [
        {
          "internalType": "uint256",
          "name": "id",
          "type": "uint256"
        },
        {
          "internalType": "string",
          "name": "name",
          "type": "string"
        },
        {
          "internalType": "uint256",
          "name": "priceWei",
          "type": "uint256"
        },
        {
          "internalType": "uint256",
          "name": "slots",
          "type": "uint256"
        },
        {
          "internalType": "bool",
          "name": "exists",
          "type": "bool"
        }
      ],
      "stateMutability": "view",
      "type": "function"
    },
    {
      "inputs": [
        {
          "internalType": "string",
          "name": "uri",
          "type": "string"
        }
      ],
      "name": "setProfilePic",
      "outputs": [],
      "stateMutability": "nonpayable",
      "type": "function"
    }
  ],
  "bytecode": "0x608060405234801561001057600080fd5b506001600560003373ffffffffffffffffffffffffffffffffffffffff1673ffffffffffffffffffffffffffffffffffffffff16815260200190815260200160002060006101000a81548160ff0219169083151502179055503373ffffffffffffffffffffffffffffffffffffffff167f44d6d25963f097ad14f29f06854a01f575648a1ef82f30e562ccd3889717e33960405160405180910390a2612f67806100bb6000396000f3fe6080604052600436106101145760003560e01c806348b56adc116100a0578063e0eb50ee11610064578063e0eb50ee146103cf578063e84f756e146103f8578063ef91b7ca14610423578063f794cf2d14610460578063fbc628331461048b57610114565b806348b56adc1461030b5780634c9ba85214610336578063704802751461035f57806399845ab614610388578063df93a4e3146103a457610114565b80631bae0ac8116100e75780631bae0ac8146101ea57806324d7806c1461022b5780633a0f1d7014610268578063429b62e5146102a5578063461d60be146102e257610114565b8063011f2cce14610119578063067cf832146101425780630d8d57d61461018457806317700a32146101c1575b600080fd5b34801561012557600080fd5b50610140600480360381019061013b9190611c58565b6104b6565b005b34801561014e57600080fd5b5061016960048036038101906101649190611cdb565b610559565b60405161017b96959493929190611d73565b60405180910390f35b34801561019057600080fd5b506101ab60048036038101906101a69190611e00565b6105c2565b6040516101b89190611ebd565b60405180910390f35b3480156101cd57600080fd5b506101e860048036038101906101e391906120f0565b610693565b005b3480156101f657600080fd5b50610211600480360381019061020c9190611cdb565b6108be565b6040516102229594939291906121a3565b60405180910390f35b34801561023757600080fd5b50610252600480360381019061024d9190611e00565b610989565b60405161025f91906121fd565b60405180910390f35b34801561027457600080fd5b5061028f600480360381019061028a9190612218565b6109df565b60405161029c9190612258565b60405180910390f35b3480156102b157600080fd5b506102cc60048036038101906102c79190611e00565b610a10565b6040516102d991906121fd565b60405180910390f35b3480156102ee57600080fd5b5061030960048036038101906103049190611cdb565b610a30565b005b34801561031757600080fd5b50610320610b7c565b60405161032d91906123ca565b60405180910390f35b34801561034257600080fd5b5061035d60048036038101906103589190611cdb565b610d3a565b005b34801561036b57600080fd5b5061038660048036038101906103819190611e00565b610ec8565b005b6103a2600480360381019061039d91906123ec565b610ff2565b005b3480156103b057600080fd5b506103b96112c7565b6040516103c69190612258565b60405180910390f35b3480156103db57600080fd5b506103f660048036038101906103f1919061243f565b6112cd565b005b34801561040457600080fd5b5061040d61148b565b60405161041a9190612258565b60405180910390f35b34801561042f57600080fd5b5061044a60048036038101906104459190611e00565b611491565b60405161045791906123ca565b60405180910390f35b34801561046c57600080fd5b50610475611651565b604051610482919061273c565b60405180910390f35b34801561049757600080fd5b506104a06118c3565b6040516104ad91906123ca565b60405180910390f35b8181600660003373ffffffffffffffffffffffffffffffffffffffff1673ffffffffffffffffffffffffffffffffffffffff1681526020019081526020016000209182610504929190612975565b503373ffffffffffffffffffffffffffffffffffffffff167fdd635a4cd84864e37e4479dbfc2ec667acfa473c83c8422a8ac9d9d07599b01c838360405161054d929190612a72565b60405180910390a25050565b60026020528060005260406000206000915090508060000154908060010154908060020160009054906101000a900473ffffffffffffffffffffffffffffffffffffffff16908060030154908060040154908060050160009054906101000a900460ff16905086565b6060600660008373ffffffffffffffffffffffffffffffffffffffff1673ffffffffffffffffffffffffffffffffffffffff168152602001908152602001600020805461060e90612798565b80601f016020809104026020016040519081016040528092919081815260200182805461063a90612798565b80156106875780601f1061065c57610100808354040283529160200191610687565b820191906000526020600020905b81548152906001019060200180831161066a57829003601f168201915b50505050509050919050565b600560003373ffffffffffffffffffffffffffffffffffffffff1673ffffffffffffffffffffffffffffffffffffffff16815260200190815260200160002060009054906101000a900460ff1661071f576040517f08c379a000000000000000000000000000000000000000000000000000000000815260040161071690612ae2565b60405180910390fd5b60008086815260200190815260200160002060040160009054906101000a900460ff16610781576040517f08c379a000000000000000000000000000000000000000000000000000000000815260040161077890612b4e565b60405180910390fd5b8360008087815260200190815260200160002060010190816107a39190612b6e565b508260008087815260200190815260200160002060020181905550816000808781526020019081526020016000206003018190555060008086815260200190815260200160002060050160006107f99190611ab7565b60005b815181101561087a5760008087815260200190815260200160002060050182828151811061082d5761082c612c40565b5b60200260200101519080600181540180825580915050600190039060005260206000200160009091909190915090816108669190612b6e565b50808061087290612c9e565b9150506107fc565b50847f23604ae845492841590cceca03dc6d022c964dbe505d64962e40b2169f72f2838585856040516108af93929190612ce6565b60405180910390a25050505050565b60006020528060005260406000206000915090508060000154908060010180546108e790612798565b80601f016020809104026020016040519081016040528092919081815260200182805461091390612798565b80156109605780601f1061093557610100808354040283529160200191610960565b820191906000526020600020905b81548152906001019060200180831161094357829003601f168201915b5050505050908060020154908060030154908060040160009054906101000a900460ff16905085565b6000600560008373ffffffffffffffffffffffffffffffffffffffff1673ffffffffffffffffffffffffffffffffffffffff16815260200190815260200160002060009054906101000a900460ff169050919050565b600460205281600052604060002081815481106109fb57600080fd5b90600052602060002001600091509150505481565b60056020528060005260406000206000915054906101000a900460ff1681565b600560003373ffffffffffffffffffffffffffffffffffffffff1673ffffffffffffffffffffffffffffffffffffffff16815260200190815260200160002060009054906101000a900460ff16610abc576040517f08c379a0000000000000000000000000000000000000000000000000000000008152600401610ab390612ae2565b60405180910390fd5b60008082815260200190815260200160002060040160009054906101000a900460ff16610b1e576040517f08c379a0000000000000000000000000000000000000000000000000000000008152600401610b1590612b4e565b60405180910390fd5b600080600083815260200190815260200160002060040160006101000a81548160ff021916908315150217905550807f044a28d8d126c6e4b59557f138a91a6fd5fbcc430536680917f3948e47b2945b60405160405180910390a250565b60606000600460003373ffffffffffffffffffffffffffffffffffffffff1673ffffffffffffffffffffffffffffffffffffffff16815260200190815260200160002090506000818054905067ffffffffffffffff811115610be157610be0611ee4565b5b604051908082528060200260200182016040528015610c1a57816020015b610c07611ad8565b815260200190600190039081610bff5790505b50905060005b8280549050811015610d315760026000848381548110610c4357610c42612c40565b5b906000526020600020015481526020019081526020016000206040518060c001604052908160008201548152602001600182015481526020016002820160009054906101000a900473ffffffffffffffffffffffffffffffffffffffff1673ffffffffffffffffffffffffffffffffffffffff1673ffffffffffffffffffffffffffffffffffffffff16815260200160038201548152602001600482015481526020016005820160009054906101000a900460ff161515151581525050828281518110610d1357610d12612c40565b5b60200260200101819052508080610d2990612c9e565b915050610c20565b50809250505090565b60006002600083815260200190815260200160002090503373ffffffffffffffffffffffffffffffffffffffff168160020160009054906101000a900473ffffffffffffffffffffffffffffffffffffffff1673ffffffffffffffffffffffffffffffffffffffff1614610de3576040517f08c379a0000000000000000000000000000000000000000000000000000000008152600401610dda90612d70565b60405180910390fd5b8060050160009054906101000a900460ff16610e34576040517f08c379a0000000000000000000000000000000000000000000000000000000008152600401610e2b90612ddc565b60405180910390fd5b60008160050160006101000a81548160ff021916908315150217905550600080826001015481526020019081526020016000206003016000815480929190610e7b90612c9e565b9190505550813373ffffffffffffffffffffffffffffffffffffffff167f10190e7f174afbe5482194d509017e9df854671cd62fb4ef901fbd0080c1e6b660405160405180910390a35050565b600560003373ffffffffffffffffffffffffffffffffffffffff1673ffffffffffffffffffffffffffffffffffffffff16815260200190815260200160002060009054906101000a900460ff16610f54576040517f08c379a0000000000000000000000000000000000000000000000000000000008152600401610f4b90612ae2565b60405180910390fd5b6001600560008373ffffffffffffffffffffffffffffffffffffffff1673ffffffffffffffffffffffffffffffffffffffff16815260200190815260200160002060006101000a81548160ff0219169083151502179055508073ffffffffffffffffffffffffffffffffffffffff167f44d6d25963f097ad14f29f06854a01f575648a1ef82f30e562ccd3889717e33960405160405180910390a250565b600080600085815260200190815260200160002090508060040160009054906101000a900460ff16611059576040517f08c379a000000000000000000000000000000000000000000000000000000000815260040161105090612b4e565b60405180910390fd5b60008160030154116110a0576040517f08c379a000000000000000000000000000000000000000000000000000000000815260040161109790612e48565b60405180910390fd5b80600201543410156110e7576040517f08c379a00000000000000000000000000000000000000000000000000000000081526004016110de90612eb4565b60405180910390fd5b8060030160008154809291906110fc90612ed4565b91905055506003600081548092919061111490612c9e565b91905055506040518060c0016040528060035481526020018581526020013373ffffffffffffffffffffffffffffffffffffffff16815260200184815260200183815260200160011515815250600260006003548152602001908152602001600020600082015181600001556020820151816001015560408201518160020160006101000a81548173ffffffffffffffffffffffffffffffffffffffff021916908373ffffffffffffffffffffffffffffffffffffffff160217905550606082015181600301556080820151816004015560a08201518160050160006101000a81548160ff021916908315150217905550905050600460003373ffffffffffffffffffffffffffffffffffffffff1673ffffffffffffffffffffffffffffffffffffffff1681526020019081526020016000206003549080600181540180825580915050600190039060005260206000200160009091909190915055833373ffffffffffffffffffffffffffffffffffffffff167fd0b6eb008b0a9669c5a33ab4f818313e4e69b7925ad073dab1f6dc70cd7192296003546040516112b99190612258565b60405180910390a350505050565b60015481565b600560003373ffffffffffffffffffffffffffffffffffffffff1673ffffffffffffffffffffffffffffffffffffffff16815260200190815260200160002060009054906101000a900460ff16611359576040517f08c379a000000000000000000000000000000000000000000000000000000000815260040161135090612ae2565b60405180910390fd5b6001600081548092919061136c90612c9e565b91905055506000806000600154815260200190815260200160002090506001548160000181905550848160010190816113a59190612b6e565b5083816002018190555082816003018190555060018160040160006101000a81548160ff02191690831515021790555060005b825181101561144557816005018382815181106113f8576113f7612c40565b5b60200260200101519080600181540180825580915050600190039060005260206000200160009091909190915090816114319190612b6e565b50808061143d90612c9e565b9150506113d8565b506001547fe1a78b126949fcb3f86c401cb54335acb8282a4bcbdcd6cf3329ba5e50a339d386868660405161147c93929190612ce6565b60405180910390a25050505050565b60035481565b60606000600460008473ffffffffffffffffffffffffffffffffffffffff1673ffffffffffffffffffffffffffffffffffffffff16815260200190815260200160002090506000818054905067ffffffffffffffff8111156114f6576114f5611ee4565b5b60405190808252806020026020018201604052801561152f57816020015b61151c611ad8565b8152602001906001900390816115145790505b50905060005b8280549050811015611646576002600084838154811061155857611557612c40565b5b906000526020600020015481526020019081526020016000206040518060c001604052908160008201548152602001600182015481526020016002820160009054906101000a900473ffffffffffffffffffffffffffffffffffffffff1673ffffffffffffffffffffffffffffffffffffffff1673ffffffffffffffffffffffffffffffffffffffff16815260200160038201548152602001600482015481526020016005820160009054906101000a900460ff16151515158152505082828151811061162857611627612c40565b5b6020026020010181905250808061163e90612c9e565b915050611535565b508092505050919050565b6060600060015467ffffffffffffffff81111561167157611670611ee4565b5b6040519080825280602002602001820160405280156116aa57816020015b611697611b26565b81526020019060019003908161168f5790505b5090506000600190505b60015481116118bb576000808281526020019081526020016000206040518060c0016040529081600082015481526020016001820180546116f490612798565b80601f016020809104026020016040519081016040528092919081815260200182805461172090612798565b801561176d5780601f106117425761010080835404028352916020019161176d565b820191906000526020600020905b81548152906001019060200180831161175057829003601f168201915b5050505050815260200160028201548152602001600382015481526020016004820160009054906101000a900460ff1615151515815260200160058201805480602002602001604051908101604052809291908181526020016000905b828210156118765783829060005260206000200180546117e990612798565b80601f016020809104026020016040519081016040528092919081815260200182805461181590612798565b80156118625780601f1061183757610100808354040283529160200191611862565b820191906000526020600020905b81548152906001019060200180831161184557829003601f168201915b5050505050815260200190600101906117ca565b50505050815250508260018361188c9190612efd565b8151811061189d5761189c612c40565b5b602002602001018190525080806118b390612c9e565b9150506116b4565b508091505090565b6060600560003373ffffffffffffffffffffffffffffffffffffffff1673ffffffffffffffffffffffffffffffffffffffff16815260200190815260200160002060009054906101000a900460ff16611951576040517f08c379a000000000000000000000000000000000000000000000000000000000815260040161194890612ae2565b60405180910390fd5b600060035467ffffffffffffffff81111561196f5761196e611ee4565b5b6040519080825280602002602001820160405280156119a857816020015b611995611ad8565b81526020019060019003908161198d5790505b5090506000600190505b6003548111611aaf57600260008281526020019081526020016000206040518060c001604052908160008201548152602001600182015481526020016002820160009054906101000a900473ffffffffffffffffffffffffffffffffffffffff1673ffffffffffffffffffffffffffffffffffffffff1673ffffffffffffffffffffffffffffffffffffffff16815260200160038201548152602001600482015481526020016005820160009054906101000a900460ff16151515158152505082600183611a809190612efd565b81518110611a9157611a90612c40565b5b60200260200101819052508080611aa790612c9e565b9150506119b2565b508091505090565b5080546000825590600052602060002090810190611ad59190611b5e565b50565b6040518060c001604052806000815260200160008152602001600073ffffffffffffffffffffffffffffffffffffffff16815260200160008152602001600081526020016000151581525090565b6040518060c0016040528060008152602001606081526020016000815260200160008152602001600015158152602001606081525090565b5b80821115611b7e5760008181611b759190611b82565b50600101611b5f565b5090565b508054611b8e90612798565b6000825580601f10611ba05750611bbf565b601f016020900490600052602060002090810190611bbe9190611bc2565b5b50565b5b80821115611bdb576000816000905550600101611bc3565b5090565b6000604051905090565b600080fd5b600080fd5b600080fd5b600080fd5b600080fd5b60008083601f840112611c1857611c17611bf3565b5b8235905067ffffffffffffffff811115611c3557611c34611bf8565b5b602083019150836001820283011115611c5157611c50611bfd565b5b9250929050565b60008060208385031215611c6f57611c6e611be9565b5b600083013567ffffffffffffffff811115611c8d57611c8c611bee565b5b611c9985828601611c02565b92509250509250929050565b6000819050919050565b611cb881611ca5565b8114611cc357600080fd5b50565b600081359050611cd581611caf565b92915050565b600060208284031215611cf157611cf0611be9565b5b6000611cff84828501611cc6565b91505092915050565b611d1181611ca5565b82525050565b600073ffffffffffffffffffffffffffffffffffffffff82169050919050565b6000611d4282611d17565b9050919050565b611d5281611d37565b82525050565b60008115159050919050565b611d6d81611d58565b82525050565b600060c082019050611d886000830189611d08565b611d956020830188611d08565b611da26040830187611d49565b611daf6060830186611d08565b611dbc6080830185611d08565b611dc960a0830184611d64565b979650505050505050565b611ddd81611d37565b8114611de857600080fd5b50565b600081359050611dfa81611dd4565b92915050565b600060208284031215611e1657611e15611be9565b5b6000611e2484828501611deb565b91505092915050565b600081519050919050565b600082825260208201905092915050565b60005b83811015611e67578082015181840152602081019050611e4c565b60008484015250505050565b6000601f19601f8301169050919050565b6000611e8f82611e2d565b611e998185611e38565b9350611ea9818560208601611e49565b611eb281611e73565b840191505092915050565b60006020820190508181036000830152611ed78184611e84565b905092915050565b600080fd5b7f4e487b7100000000000000000000000000000000000000000000000000000000600052604160045260246000fd5b611f1c82611e73565b810181811067ffffffffffffffff82111715611f3b57611f3a611ee4565b5b80604052505050565b6000611f4e611bdf565b9050611f5a8282611f13565b919050565b600067ffffffffffffffff821115611f7a57611f79611ee4565b5b611f8382611e73565b9050602081019050919050565b82818337600083830152505050565b6000611fb2611fad84611f5f565b611f44565b905082815260208101848484011115611fce57611fcd611edf565b5b611fd9848285611f90565b509392505050565b600082601f830112611ff657611ff5611bf3565b5b8135612006848260208601611f9f565b91505092915050565b600067ffffffffffffffff82111561202a57612029611ee4565b5b602082029050602081019050919050565b600061204e6120498461200f565b611f44565b9050808382526020820190506020840283018581111561207157612070611bfd565b5b835b818110156120b857803567ffffffffffffffff81111561209657612095611bf3565b5b8086016120a38982611fe1565b85526020850194505050602081019050612073565b5050509392505050565b600082601f8301126120d7576120d6611bf3565b5b81356120e784826020860161203b565b91505092915050565b600080600080600060a0868803121561210c5761210b611be9565b5b600061211a88828901611cc6565b955050602086013567ffffffffffffffff81111561213b5761213a611bee565b5b61214788828901611fe1565b945050604061215888828901611cc6565b935050606061216988828901611cc6565b925050608086013567ffffffffffffffff81111561218a57612189611bee565b5b612196888289016120c2565b9150509295509295909350565b600060a0820190506121b86000830188611d08565b81810360208301526121ca8187611e84565b90506121d96040830186611d08565b6121e66060830185611d08565b6121f36080830184611d64565b9695505050505050565b60006020820190506122126000830184611d64565b92915050565b6000806040838503121561222f5761222e611be9565b5b600061223d85828601611deb565b925050602061224e85828601611cc6565b9150509250929050565b600060208201905061226d6000830184611d08565b92915050565b600081519050919050565b600082825260208201905092915050565b6000819050602082019050919050565b6122a881611ca5565b82525050565b6122b781611d37565b82525050565b6122c681611d58565b82525050565b60c0820160008201516122e2600085018261229f565b5060208201516122f5602085018261229f565b50604082015161230860408501826122ae565b50606082015161231b606085018261229f565b50608082015161232e608085018261229f565b5060a082015161234160a08501826122bd565b50505050565b600061235383836122cc565b60c08301905092915050565b6000602082019050919050565b600061237782612273565b612381818561227e565b935061238c8361228f565b8060005b838110156123bd5781516123a48882612347565b97506123af8361235f565b925050600181019050612390565b5085935050505092915050565b600060208201905081810360008301526123e4818461236c565b905092915050565b60008060006060848603121561240557612404611be9565b5b600061241386828701611cc6565b935050602061242486828701611cc6565b925050604061243586828701611cc6565b9150509250925092565b6000806000806080858703121561245957612458611be9565b5b600085013567ffffffffffffffff81111561247757612476611bee565b5b61248387828801611fe1565b945050602061249487828801611cc6565b93505060406124a587828801611cc6565b925050606085013567ffffffffffffffff8111156124c6576124c5611bee565b5b6124d2878288016120c2565b91505092959194509250565b600081519050919050565b600082825260208201905092915050565b6000819050602082019050919050565b600082825260208201905092915050565b600061252682611e2d565b612530818561250a565b9350612540818560208601611e49565b61254981611e73565b840191505092915050565b600081519050919050565b600082825260208201905092915050565b6000819050602082019050919050565b600061258c838361251b565b905092915050565b6000602082019050919050565b60006125ac82612554565b6125b6818561255f565b9350836020820285016125c885612570565b8060005b8581101561260457848403895281516125e58582612580565b94506125f083612594565b925060208a019950506001810190506125cc565b50829750879550505050505092915050565b600060c08301600083015161262e600086018261229f565b5060208301518482036020860152612646828261251b565b915050604083015161265b604086018261229f565b50606083015161266e606086018261229f565b50608083015161268160808601826122bd565b5060a083015184820360a086015261269982826125a1565b9150508091505092915050565b60006126b28383612616565b905092915050565b6000602082019050919050565b60006126d2826124de565b6126dc81856124e9565b9350836020820285016126ee856124fa565b8060005b8581101561272a578484038952815161270b85826126a6565b9450612716836126ba565b925060208a019950506001810190506126f2565b50829750879550505050505092915050565b6000602082019050818103600083015261275681846126c7565b905092915050565b600082905092915050565b7f4e487b7100000000000000000000000000000000000000000000000000000000600052602260045260246000fd5b600060028204905060018216806127b057607f821691505b6020821081036127c3576127c2612769565b5b50919050565b60008190508160005260206000209050919050565b60006020601f8301049050919050565b600082821b905092915050565b60006008830261282b7fffffffffffffffffffffffffffffffffffffffffffffffffffffffffffffffff826127ee565b61283586836127ee565b95508019841693508086168417925050509392505050565b6000819050919050565b600061287261286d61286884611ca5565b61284d565b611ca5565b9050919050565b6000819050919050565b61288c83612857565b6128a061289882612879565b8484546127fb565b825550505050565b600090565b6128b56128a8565b6128c0818484612883565b505050565b5b818110156128e4576128d96000826128ad565b6001810190506128c6565b5050565b601f821115612929576128fa816127c9565b612903846127de565b81016020851015612912578190505b61292661291e856127de565b8301826128c5565b50505b505050565b600082821c905092915050565b600061294c6000198460080261292e565b1980831691505092915050565b6000612965838361293b565b9150826002028217905092915050565b61297f838361275e565b67ffffffffffffffff81111561299857612997611ee4565b5b6129a28254612798565b6129ad8282856128e8565b6000601f8311600181146129dc57600084156129ca578287013590505b6129d48582612959565b865550612a3c565b601f1984166129ea866127c9565b60005b82811015612a12578489013582556001820191506020850194506020810190506129ed565b86831015612a2f5784890135612a2b601f89168261293b565b8355505b6001600288020188555050505b50505050505050565b6000612a518385611e38565b9350612a5e838584611f90565b612a6783611e73565b840190509392505050565b60006020820190508181036000830152612a8d818486612a45565b90509392505050565b7f4f6e6c792061646d696e20616c6c6f7765640000000000000000000000000000600082015250565b6000612acc601283611e38565b9150612ad782612a96565b602082019050919050565b60006020820190508181036000830152612afb81612abf565b9050919050565b7f526f6f6d206e6f7420666f756e64000000000000000000000000000000000000600082015250565b6000612b38600e83611e38565b9150612b4382612b02565b602082019050919050565b60006020820190508181036000830152612b6781612b2b565b9050919050565b612b7782611e2d565b67ffffffffffffffff811115612b9057612b8f611ee4565b5b612b9a8254612798565b612ba58282856128e8565b600060209050601f831160018114612bd85760008415612bc6578287015190505b612bd08582612959565b865550612c38565b601f198416612be6866127c9565b60005b82811015612c0e57848901518255600182019150602085019450602081019050612be9565b86831015612c2b5784890151612c27601f89168261293b565b8355505b6001600288020188555050505b505050505050565b7f4e487b7100000000000000000000000000000000000000000000000000000000600052603260045260246000fd5b7f4e487b7100000000000000000000000000000000000000000000000000000000600052601160045260246000fd5b6000612ca982611ca5565b91507fffffffffffffffffffffffffffffffffffffffffffffffffffffffffffffffff8203612cdb57612cda612c6f565b5b600182019050919050565b60006060820190508181036000830152612d008186611e84565b9050612d0f6020830185611d08565b612d1c6040830184611d08565b949350505050565b7f4e6f74207265736572766174696f6e206f776e65720000000000000000000000600082015250565b6000612d5a601583611e38565b9150612d6582612d24565b602082019050919050565b60006020820190508181036000830152612d8981612d4d565b9050919050565b7f5265736572766174696f6e206e6f742061637469766500000000000000000000600082015250565b6000612dc6601683611e38565b9150612dd182612d90565b602082019050919050565b60006020820190508181036000830152612df581612db9565b9050919050565b7f4e6f20736c6f747320617661696c61626c650000000000000000000000000000600082015250565b6000612e32601283611e38565b9150612e3d82612dfc565b602082019050919050565b60006020820190508181036000830152612e6181612e25565b9050919050565b7f496e73756666696369656e74207061796d656e74000000000000000000000000600082015250565b6000612e9e601483611e38565b9150612ea982612e68565b602082019050919050565b60006020820190508181036000830152612ecd81612e91565b9050919050565b6000612edf82611ca5565b915060008203612ef257612ef1612c6f565b5b600182039050919050565b6000612f0882611ca5565b9150612f1383611ca5565b9250828203905081811115612f2b57612f2a612c6f565b5b9291505056fea26469706673582212209c7b6f1966f4049fc628223ed88d3606f99282f1e87e978f1a0e4424c4b5a13d64736f6c63430008130033",
  "linkReferences": {},
  "deployedLinkReferences": {}
}