{
  "_format": "hh-sol-artifact-1",
  "contractName": "HotelReservation",
  "sourceName": "contracts/HotelReservation.sol",
  "abi": [
    {
      "inputs": [],
      "stateMutability": "nonpayable",
      "type": "constructor"
    },
    {
      "anonymous": false,
      "inputs": [
        {
          "indexed": true,
          "internalType": "address",
          "name": "user",
          "type": "address"
        },
        {
          "indexed": true,
          "internalType": "uint256",
          "name": "reservationId",
          "type": "uint256"
        }
      ],
      "name": "Checkout",
      "type": "event"
    },
    {
      "anonymous": false,
      "inputs": [
        {
          "indexed": true,
          "internalType": "address",
          "name": "user",
          "type": "address"
        },
        {
          "indexed": true,
          "internalType": "uint256",
          "name": "roomId",
          "type": "uint256"
        },
        {
          "indexed": false,
          "internalType": "uint256",
          "name": "reservationId",
          "type": "uint256"
        }
      ],
      "name": "Reserved",
      "type": "event"
    },
    {
      "anonymous": false,
      "inputs": [
        {
          "indexed": true,
          "internalType": "uint256",
          "name": "roomId",
          "type": "uint256"
        },
        {
          "indexed": false,
          "internalType": "string",
          "name": "name",
          "type": "string"
        },
        {
          "indexed": false,
          "internalType": "uint256",
          "name": "priceWei",
          "type": "uint256"
        },
        {
          "indexed": false,
          "internalType": "uint256",
          "name": "slots",
          "type": "uint256"
        }
      ],
      "name": "RoomAdded",
      "type": "event"
    },
    {
      "inputs": [
        {
          "internalType": "string",
          "name": "name",
          "type": "string"
        },
        {
          "internalType": "uint256",
          "name": "priceWei",
          "type": "uint256"
        },
        {
          "internalType": "uint256",
          "name": "slots",
          "type": "uint256"
        }
      ],
      "name": "addRoom",
      "outputs": [],
      "stateMutability": "nonpayable",
      "type": "function"
    },
    {
      "inputs": [
        {
          "internalType": "uint256",
          "name": "reservationId",
          "type": "uint256"
        }
      ],
      "name": "checkout",
      "outputs": [],
      "stateMutability": "nonpayable",
      "type": "function"
    },
    {
      "inputs": [],
      "name": "getAllRooms",
      "outputs": [
        {
          "components": [
            {
              "internalType": "uint256",
              "name": "id",
              "type": "uint256"
            },
            {
              "internalType": "string",
              "name": "name",
              "type": "string"
            },
            {
              "internalType": "uint256",
              "name": "priceWei",
              "type": "uint256"
            },
            {
              "internalType": "uint256",
              "name": "slots",
              "type": "uint256"
            },
            {
              "internalType": "bool",
              "name": "exists",
              "type": "bool"
            }
          ],
          "internalType": "struct HotelReservation.Room[]",
          "name": "",
          "type": "tuple[]"
        }
      ],
      "stateMutability": "view",
      "type": "function"
    },
    {
      "inputs": [],
      "name": "getMyReservations",
      "outputs": [
        {
          "components": [
            {
              "internalType": "uint256",
              "name": "id",
              "type": "uint256"
            },
            {
              "internalType": "uint256",
              "name": "roomId",
              "type": "uint256"
            },
            {
              "internalType": "address",
              "name": "user",
              "type": "address"
            },
            {
              "internalType": "uint256",
              "name": "fromTimestamp",
              "type": "uint256"
            },
            {
              "internalType": "uint256",
              "name": "toTimestamp",
              "type": "uint256"
            },
            {
              "internalType": "bool",
              "name": "active",
              "type": "bool"
            }
          ],
          "internalType": "struct HotelReservation.Reservation[]",
          "name": "",
          "type": "tuple[]"
        }
      ],
      "stateMutability": "view",
      "type": "function"
    },
    {
      "inputs": [],
      "name": "reservationCount",
      "outputs": [
        {
          "internalType": "uint256",
          "name": "",
          "type": "uint256"
        }
      ],
      "stateMutability": "view",
      "type": "function"
    },
    {
      "inputs": [
        {
          "internalType": "address",
          "name": "",
          "type": "address"
        },
        {
          "internalType": "uint256",
          "name": "",
          "type": "uint256"
        }
      ],
      "name": "reservationsByUser",
      "outputs": [
        {
          "internalType": "uint256",
          "name": "id",
          "type": "uint256"
        },
        {
          "internalType": "uint256",
          "name": "roomId",
          "type": "uint256"
        },
        {
          "internalType": "address",
          "name": "user",
          "type": "address"
        },
        {
          "internalType": "uint256",
          "name": "fromTimestamp",
          "type": "uint256"
        },
        {
          "internalType": "uint256",
          "name": "toTimestamp",
          "type": "uint256"
        },
        {
          "internalType": "bool",
          "name": "active",
          "type": "bool"
        }
      ],
      "stateMutability": "view",
      "type": "function"
    },
    {
      "inputs": [
        {
          "internalType": "uint256",
          "name": "roomId",
          "type": "uint256"
        },
        {
          "internalType": "uint256",
          "name": "fromTimestamp",
          "type": "uint256"
        },
        {
          "internalType": "uint256",
          "name": "toTimestamp",
          "type": "uint256"
        }
      ],
      "name": "reserve",
      "outputs": [],
      "stateMutability": "payable",
      "type": "function"
    },
    {
      "inputs": [],
      "name": "roomCount",
      "outputs": [
        {
          "internalType": "uint256",
          "name": "",
          "type": "uint256"
        }
      ],
      "stateMutability": "view",
      "type": "function"
    },
    {
      "inputs": [
        {
          "internalType": "uint256",
          "name": "",
          "type": "uint256"
        }
      ],
      "name": "rooms",
      "outputs": [
        {
          "internalType": "uint256",
          "name": "id",
          "type": "uint256"
        },
        {
          "internalType": "string",
          "name": "name",
          "type": "string"
        },
        {
          "internalType": "uint256",
          "name": "priceWei",
          "type": "uint256"
        },
        {
          "internalType": "uint256",
          "name": "slots",
          "type": "uint256"
        },
        {
          "internalType": "bool",
          "name": "exists",
          "type": "bool"
        }
      ],
      "stateMutability": "view",
      "type": "function"
    }
  ],
  "bytecode": "0x60806040523480156200001157600080fd5b50620000626040518060400160405280600b81526020017f44656c75786520526f6f6d00000000000000000000000000000000000000000081525066b1a2bc2ec5000060056200010a60201b60201c565b620000b36040518060400160405280600f81526020017f457865637574697665205375697465000000000000000000000000000000000081525067011c37937e08000060036200010a60201b60201c565b620001046040518060400160405280601281526020017f507265736964656e7469616c20537569746500000000000000000000000000008152506701aa535d3d0c000060026200010a60201b60201c565b620006c3565b600160008154809291906200011f906200023b565b91905055506040518060a001604052806001548152602001848152602001838152602001828152602001600115158152506000806001548152602001908152602001600020600082015181600001556020820151816001019081620001859190620004f8565b50604082015181600201556060820151816003015560808201518160040160006101000a81548160ff0219169083151502179055509050506001547fe1a78b126949fcb3f86c401cb54335acb8282a4bcbdcd6cf3329ba5e50a339d3848484604051620001f5939291906200067f565b60405180910390a2505050565b7f4e487b7100000000000000000000000000000000000000000000000000000000600052601160045260246000fd5b6000819050919050565b6000620002488262000231565b91507fffffffffffffffffffffffffffffffffffffffffffffffffffffffffffffffff82036200027d576200027c62000202565b5b600182019050919050565b600081519050919050565b7f4e487b7100000000000000000000000000000000000000000000000000000000600052604160045260246000fd5b7f4e487b7100000000000000000000000000000000000000000000000000000000600052602260045260246000fd5b600060028204905060018216806200030a57607f821691505b60208210810362000320576200031f620002c2565b5b50919050565b60008190508160005260206000209050919050565b60006020601f8301049050919050565b600082821b905092915050565b6000600883026200038a7fffffffffffffffffffffffffffffffffffffffffffffffffffffffffffffffff826200034b565b6200039686836200034b565b95508019841693508086168417925050509392505050565b6000819050919050565b6000620003d9620003d3620003cd8462000231565b620003ae565b62000231565b9050919050565b6000819050919050565b620003f583620003b8565b6200040d6200040482620003e0565b84845462000358565b825550505050565b600090565b6200042462000415565b62000431818484620003ea565b505050565b5b8181101562000459576200044d6000826200041a565b60018101905062000437565b5050565b601f821115620004a857620004728162000326565b6200047d846200033b565b810160208510156200048d578190505b620004a56200049c856200033b565b83018262000436565b50505b505050565b600082821c905092915050565b6000620004cd60001984600802620004ad565b1980831691505092915050565b6000620004e88383620004ba565b9150826002028217905092915050565b620005038262000288565b67ffffffffffffffff8111156200051f576200051e62000293565b5b6200052b8254620002f1565b620005388282856200045d565b600060209050601f8311600181146200057057600084156200055b578287015190505b620005678582620004da565b865550620005d7565b601f198416620005808662000326565b60005b82811015620005aa5784890151825560018201915060208501945060208101905062000583565b86831015620005ca5784890151620005c6601f891682620004ba565b8355505b6001600288020188555050505b505050505050565b600082825260208201905092915050565b60005b8381101562000610578082015181840152602081019050620005f3565b60008484015250505050565b6000601f19601f8301169050919050565b60006200063a8262000288565b620006468185620005df565b935062000658818560208601620005f0565b62000663816200061c565b840191505092915050565b620006798162000231565b82525050565b600060608201905081810360008301526200069b81866200062d565b9050620006ac60208301856200066e565b620006bb60408301846200066e565b949350505050565b611a0980620006d36000396000f3fe6080604052600436106100865760003560e01c80634c9ba852116100595780634c9ba8521461016257806399845ab61461018b578063df93a4e3146101a7578063e84f756e146101d2578063f794cf2d146101fd57610086565b80631bae0ac81461008b5780632cc91f41146100cc5780633a0f1d70146100f557806348b56adc14610137575b600080fd5b34801561009757600080fd5b506100b260048036038101906100ad9190610c60565b610228565b6040516100c3959493929190610d47565b60405180910390f35b3480156100d857600080fd5b506100f360048036038101906100ee9190610ed6565b6102f3565b005b34801561010157600080fd5b5061011c60048036038101906101179190610fa3565b6103e5565b60405161012e96959493929190610ff2565b60405180910390f35b34801561014357600080fd5b5061014c61046b565b60405161015991906111aa565b60405180910390f35b34801561016e57600080fd5b5061018960048036038101906101849190610c60565b6105a0565b005b6101a560048036038101906101a091906111cc565b610781565b005b3480156101b357600080fd5b506101bc610a40565b6040516101c9919061121f565b60405180910390f35b3480156101de57600080fd5b506101e7610a46565b6040516101f4919061121f565b60405180910390f35b34801561020957600080fd5b50610212610a4c565b60405161021f91906113bc565b60405180910390f35b60006020528060005260406000206000915090508060000154908060010180546102519061140d565b80601f016020809104026020016040519081016040528092919081815260200182805461027d9061140d565b80156102ca5780601f1061029f576101008083540402835291602001916102ca565b820191906000526020600020905b8154815290600101906020018083116102ad57829003601f168201915b5050505050908060020154908060030154908060040160009054906101000a900460ff16905085565b600160008154809291906103069061146d565b91905055506040518060a00160405280600154815260200184815260200183815260200182815260200160011515815250600080600154815260200190815260200160002060008201518160000155602082015181600101908161036a9190611661565b50604082015181600201556060820151816003015560808201518160040160006101000a81548160ff0219169083151502179055509050506001547fe1a78b126949fcb3f86c401cb54335acb8282a4bcbdcd6cf3329ba5e50a339d38484846040516103d893929190611733565b60405180910390a2505050565b6002602052816000526040600020818154811061040157600080fd5b9060005260206000209060060201600091509150508060000154908060010154908060020160009054906101000a900473ffffffffffffffffffffffffffffffffffffffff16908060030154908060040154908060050160009054906101000a900460ff16905086565b6060600260003373ffffffffffffffffffffffffffffffffffffffff1673ffffffffffffffffffffffffffffffffffffffff168152602001908152602001600020805480602002602001604051908101604052809291908181526020016000905b8282101561059757838290600052602060002090600602016040518060c001604052908160008201548152602001600182015481526020016002820160009054906101000a900473ffffffffffffffffffffffffffffffffffffffff1673ffffffffffffffffffffffffffffffffffffffff1673ffffffffffffffffffffffffffffffffffffffff16815260200160038201548152602001600482015481526020016005820160009054906101000a900460ff161515151581525050815260200190600101906104cc565b50505050905090565b6000600260003373ffffffffffffffffffffffffffffffffffffffff1673ffffffffffffffffffffffffffffffffffffffff168152602001908152602001600020905060005b8180549050811015610742578282828154811061060657610605611771565b5b906000526020600020906006020160000154148015610653575081818154811061063357610632611771565b5b906000526020600020906006020160050160009054906101000a900460ff165b1561072f57600082828154811061066d5761066c611771565b5b906000526020600020906006020160050160006101000a81548160ff0219169083151502179055506000808383815481106106ab576106aa611771565b5b906000526020600020906006020160010154815260200190815260200160002060030160008154809291906106df9061146d565b9190505550823373ffffffffffffffffffffffffffffffffffffffff167f10190e7f174afbe5482194d509017e9df854671cd62fb4ef901fbd0080c1e6b660405160405180910390a3505061077e565b808061073a9061146d565b9150506105e6565b506040517f08c379a000000000000000000000000000000000000000000000000000000000815260040161077590611812565b60405180910390fd5b50565b600080600085815260200190815260200160002090508060040160009054906101000a900460ff166107e8576040517f08c379a00000000000000000000000000000000000000000000000000000000081526004016107df9061187e565b60405180910390fd5b600081600301541161082f576040517f08c379a0000000000000000000000000000000000000000000000000000000008152600401610826906118ea565b60405180910390fd5b8060020154341015610876576040517f08c379a000000000000000000000000000000000000000000000000000000000815260040161086d90611956565b60405180910390fd5b80600301600081548092919061088b90611976565b9190505550600360008154809291906108a39061146d565b9190505550600260003373ffffffffffffffffffffffffffffffffffffffff1673ffffffffffffffffffffffffffffffffffffffff1681526020019081526020016000206040518060c0016040528060035481526020018681526020013373ffffffffffffffffffffffffffffffffffffffff168152602001858152602001848152602001600115158152509080600181540180825580915050600190039060005260206000209060060201600090919091909150600082015181600001556020820151816001015560408201518160020160006101000a81548173ffffffffffffffffffffffffffffffffffffffff021916908373ffffffffffffffffffffffffffffffffffffffff160217905550606082015181600301556080820151816004015560a08201518160050160006101000a81548160ff0219169083151502179055505050833373ffffffffffffffffffffffffffffffffffffffff167fd0b6eb008b0a9669c5a33ab4f818313e4e69b7925ad073dab1f6dc70cd719229600354604051610a32919061121f565b60405180910390a350505050565b60015481565b60035481565b6060600060015467ffffffffffffffff811115610a6c57610a6b610dab565b5b604051908082528060200260200182016040528015610aa557816020015b610a92610be5565b815260200190600190039081610a8a5790505b5090506000600190505b6001548111610bdd576000808281526020019081526020016000206040518060a001604052908160008201548152602001600182018054610aef9061140d565b80601f0160208091040260200160405190810160405280929190818152602001828054610b1b9061140d565b8015610b685780601f10610b3d57610100808354040283529160200191610b68565b820191906000526020600020905b815481529060010190602001808311610b4b57829003601f168201915b5050505050815260200160028201548152602001600382015481526020016004820160009054906101000a900460ff16151515158152505082600183610bae919061199f565b81518110610bbf57610bbe611771565b5b60200260200101819052508080610bd59061146d565b915050610aaf565b508091505090565b6040518060a00160405280600081526020016060815260200160008152602001600081526020016000151581525090565b6000604051905090565b600080fd5b600080fd5b6000819050919050565b610c3d81610c2a565b8114610c4857600080fd5b50565b600081359050610c5a81610c34565b92915050565b600060208284031215610c7657610c75610c20565b5b6000610c8484828501610c4b565b91505092915050565b610c9681610c2a565b82525050565b600081519050919050565b600082825260208201905092915050565b60005b83811015610cd6578082015181840152602081019050610cbb565b60008484015250505050565b6000601f19601f8301169050919050565b6000610cfe82610c9c565b610d088185610ca7565b9350610d18818560208601610cb8565b610d2181610ce2565b840191505092915050565b60008115159050919050565b610d4181610d2c565b82525050565b600060a082019050610d5c6000830188610c8d565b8181036020830152610d6e8187610cf3565b9050610d7d6040830186610c8d565b610d8a6060830185610c8d565b610d976080830184610d38565b9695505050505050565b600080fd5b600080fd5b7f4e487b7100000000000000000000000000000000000000000000000000000000600052604160045260246000fd5b610de382610ce2565b810181811067ffffffffffffffff82111715610e0257610e01610dab565b5b80604052505050565b6000610e15610c16565b9050610e218282610dda565b919050565b600067ffffffffffffffff821115610e4157610e40610dab565b5b610e4a82610ce2565b9050602081019050919050565b82818337600083830152505050565b6000610e79610e7484610e26565b610e0b565b905082815260208101848484011115610e9557610e94610da6565b5b610ea0848285610e57565b509392505050565b600082601f830112610ebd57610ebc610da1565b5b8135610ecd848260208601610e66565b91505092915050565b600080600060608486031215610eef57610eee610c20565b5b600084013567ffffffffffffffff811115610f0d57610f0c610c25565b5b610f1986828701610ea8565b9350506020610f2a86828701610c4b565b9250506040610f3b86828701610c4b565b9150509250925092565b600073ffffffffffffffffffffffffffffffffffffffff82169050919050565b6000610f7082610f45565b9050919050565b610f8081610f65565b8114610f8b57600080fd5b50565b600081359050610f9d81610f77565b92915050565b60008060408385031215610fba57610fb9610c20565b5b6000610fc885828601610f8e565b9250506020610fd985828601610c4b565b9150509250929050565b610fec81610f65565b82525050565b600060c0820190506110076000830189610c8d565b6110146020830188610c8d565b6110216040830187610fe3565b61102e6060830186610c8d565b61103b6080830185610c8d565b61104860a0830184610d38565b979650505050505050565b600081519050919050565b600082825260208201905092915050565b6000819050602082019050919050565b61108881610c2a565b82525050565b61109781610f65565b82525050565b6110a681610d2c565b82525050565b60c0820160008201516110c2600085018261107f565b5060208201516110d5602085018261107f565b5060408201516110e8604085018261108e565b5060608201516110fb606085018261107f565b50608082015161110e608085018261107f565b5060a082015161112160a085018261109d565b50505050565b600061113383836110ac565b60c08301905092915050565b6000602082019050919050565b600061115782611053565b611161818561105e565b935061116c8361106f565b8060005b8381101561119d5781516111848882611127565b975061118f8361113f565b925050600181019050611170565b5085935050505092915050565b600060208201905081810360008301526111c4818461114c565b905092915050565b6000806000606084860312156111e5576111e4610c20565b5b60006111f386828701610c4b565b935050602061120486828701610c4b565b925050604061121586828701610c4b565b9150509250925092565b60006020820190506112346000830184610c8d565b92915050565b600081519050919050565b600082825260208201905092915050565b6000819050602082019050919050565b600082825260208201905092915050565b600061128282610c9c565b61128c8185611266565b935061129c818560208601610cb8565b6112a581610ce2565b840191505092915050565b600060a0830160008301516112c8600086018261107f565b50602083015184820360208601526112e08282611277565b91505060408301516112f5604086018261107f565b506060830151611308606086018261107f565b50608083015161131b608086018261109d565b508091505092915050565b600061133283836112b0565b905092915050565b6000602082019050919050565b60006113528261123a565b61135c8185611245565b93508360208202850161136e85611256565b8060005b858110156113aa578484038952815161138b8582611326565b94506113968361133a565b925060208a01995050600181019050611372565b50829750879550505050505092915050565b600060208201905081810360008301526113d68184611347565b905092915050565b7f4e487b7100000000000000000000000000000000000000000000000000000000600052602260045260246000fd5b6000600282049050600182168061142557607f821691505b602082108103611438576114376113de565b5b50919050565b7f4e487b7100000000000000000000000000000000000000000000000000000000600052601160045260246000fd5b600061147882610c2a565b91507fffffffffffffffffffffffffffffffffffffffffffffffffffffffffffffffff82036114aa576114a961143e565b5b600182019050919050565b60008190508160005260206000209050919050565b60006020601f8301049050919050565b600082821b905092915050565b6000600883026115177fffffffffffffffffffffffffffffffffffffffffffffffffffffffffffffffff826114da565b61152186836114da565b95508019841693508086168417925050509392505050565b6000819050919050565b600061155e61155961155484610c2a565b611539565b610c2a565b9050919050565b6000819050919050565b61157883611543565b61158c61158482611565565b8484546114e7565b825550505050565b600090565b6115a1611594565b6115ac81848461156f565b505050565b5b818110156115d0576115c5600082611599565b6001810190506115b2565b5050565b601f821115611615576115e6816114b5565b6115ef846114ca565b810160208510156115fe578190505b61161261160a856114ca565b8301826115b1565b50505b505050565b600082821c905092915050565b60006116386000198460080261161a565b1980831691505092915050565b60006116518383611627565b9150826002028217905092915050565b61166a82610c9c565b67ffffffffffffffff81111561168357611682610dab565b5b61168d825461140d565b6116988282856115d4565b600060209050601f8311600181146116cb57600084156116b9578287015190505b6116c38582611645565b86555061172b565b601f1984166116d9866114b5565b60005b82811015611701578489015182556001820191506020850194506020810190506116dc565b8683101561171e578489015161171a601f891682611627565b8355505b6001600288020188555050505b505050505050565b6000606082019050818103600083015261174d8186610cf3565b905061175c6020830185610c8d565b6117696040830184610c8d565b949350505050565b7f4e487b7100000000000000000000000000000000000000000000000000000000600052603260045260246000fd5b7f5265736572766174696f6e206e6f7420666f756e64206f7220696e616374697660008201527f6500000000000000000000000000000000000000000000000000000000000000602082015250565b60006117fc602183610ca7565b9150611807826117a0565b604082019050919050565b6000602082019050818103600083015261182b816117ef565b9050919050565b7f526f6f6d206e6f7420666f756e64000000000000000000000000000000000000600082015250565b6000611868600e83610ca7565b915061187382611832565b602082019050919050565b600060208201905081810360008301526118978161185b565b9050919050565b7f4e6f20736c6f747320617661696c61626c650000000000000000000000000000600082015250565b60006118d4601283610ca7565b91506118df8261189e565b602082019050919050565b60006020820190508181036000830152611903816118c7565b9050919050565b7f496e73756666696369656e74207061796d656e74000000000000000000000000600082015250565b6000611940601483610ca7565b915061194b8261190a565b602082019050919050565b6000602082019050818103600083015261196f81611933565b9050919050565b600061198182610c2a565b9150600082036119945761199361143e565b5b600182039050919050565b60006119aa82610c2a565b91506119b583610c2a565b92508282039050818111156119cd576119cc61143e565b5b9291505056fea26469706673582212209cec290a918ad8de40b10b62d548a45c97963829dd5febffc3097b261cbb058664736f6c63430008130033",
  "linkReferences": {},
  "deployedLinkReferences": {}
}